{
  "_format": "hh-sol-artifact-1",
  "contractName": "Escrow",
  "sourceName": "contracts/Escrow.sol",
  "abi": [
    {
      "inputs": [
        {
          "internalType": "address",
          "name": "_nftAddress",
          "type": "address"
        },
        {
          "internalType": "address payable",
          "name": "_seller",
          "type": "address"
        },
        {
          "internalType": "address",
          "name": "_lender",
          "type": "address"
        },
        {
          "internalType": "address",
          "name": "_inspector",
          "type": "address"
        }
      ],
      "stateMutability": "nonpayable",
      "type": "constructor"
    },
    {
      "inputs": [
        {
          "internalType": "uint256",
          "name": "_nftID",
          "type": "uint256"
        }
      ],
      "name": "approveSale",
      "outputs": [],
      "stateMutability": "nonpayable",
      "type": "function"
    },
    {
      "inputs": [
        {
          "internalType": "uint256",
          "name": "",
          "type": "uint256"
        }
      ],
      "name": "buyer",
      "outputs": [
        {
          "internalType": "address",
          "name": "",
          "type": "address"
        }
      ],
      "stateMutability": "view",
      "type": "function"
    },
    {
      "inputs": [
        {
          "internalType": "uint256",
          "name": "_nftID",
          "type": "uint256"
        }
      ],
      "name": "cancelSale",
      "outputs": [],
      "stateMutability": "nonpayable",
      "type": "function"
    },
    {
      "inputs": [
        {
          "internalType": "uint256",
          "name": "_nftID",
          "type": "uint256"
        }
      ],
      "name": "depositEarnest",
      "outputs": [],
      "stateMutability": "payable",
      "type": "function"
    },
    {
      "inputs": [
        {
          "internalType": "uint256",
          "name": "",
          "type": "uint256"
        }
      ],
      "name": "escrowAmount",
      "outputs": [
        {
          "internalType": "uint256",
          "name": "",
          "type": "uint256"
        }
      ],
      "stateMutability": "view",
      "type": "function"
    },
    {
      "inputs": [
        {
          "internalType": "uint256",
          "name": "_nftID",
          "type": "uint256"
        }
      ],
      "name": "finalizeDeal",
      "outputs": [],
      "stateMutability": "nonpayable",
      "type": "function"
    },
    {
      "inputs": [],
      "name": "getBalance",
      "outputs": [
        {
          "internalType": "uint256",
          "name": "",
          "type": "uint256"
        }
      ],
      "stateMutability": "view",
      "type": "function"
    },
    {
      "inputs": [
        {
          "internalType": "uint256",
          "name": "",
          "type": "uint256"
        }
      ],
      "name": "inspectionPassed",
      "outputs": [
        {
          "internalType": "bool",
          "name": "",
          "type": "bool"
        }
      ],
      "stateMutability": "view",
      "type": "function"
    },
    {
      "inputs": [
        {
          "internalType": "uint256",
          "name": "_nftID",
          "type": "uint256"
        },
        {
          "internalType": "bool",
          "name": "_passed",
          "type": "bool"
        }
      ],
      "name": "inspectionStatus",
      "outputs": [],
      "stateMutability": "nonpayable",
      "type": "function"
    },
    {
      "inputs": [],
      "name": "inspector",
      "outputs": [
        {
          "internalType": "address",
          "name": "",
          "type": "address"
        }
      ],
      "stateMutability": "view",
      "type": "function"
    },
    {
      "inputs": [
        {
          "internalType": "uint256",
          "name": "",
          "type": "uint256"
        }
      ],
      "name": "isListed",
      "outputs": [
        {
          "internalType": "bool",
          "name": "",
          "type": "bool"
        }
      ],
      "stateMutability": "view",
      "type": "function"
    },
    {
      "inputs": [],
      "name": "lender",
      "outputs": [
        {
          "internalType": "address",
          "name": "",
          "type": "address"
        }
      ],
      "stateMutability": "view",
      "type": "function"
    },
    {
      "inputs": [
        {
          "internalType": "uint256",
          "name": "_nftID",
          "type": "uint256"
        },
        {
          "internalType": "address",
          "name": "_buyer",
          "type": "address"
        },
        {
          "internalType": "uint256",
          "name": "_purchasePrice",
          "type": "uint256"
        },
        {
          "internalType": "uint256",
          "name": "_escrowAmount",
          "type": "uint256"
        }
      ],
      "name": "list",
      "outputs": [],
      "stateMutability": "payable",
      "type": "function"
    },
    {
      "inputs": [],
      "name": "nftAddress",
      "outputs": [
        {
          "internalType": "address",
          "name": "",
          "type": "address"
        }
      ],
      "stateMutability": "view",
      "type": "function"
    },
    {
      "inputs": [
        {
          "internalType": "uint256",
          "name": "",
          "type": "uint256"
        }
      ],
      "name": "purchasePrice",
      "outputs": [
        {
          "internalType": "uint256",
          "name": "",
          "type": "uint256"
        }
      ],
      "stateMutability": "view",
      "type": "function"
    },
    {
      "inputs": [
        {
          "internalType": "uint256",
          "name": "",
          "type": "uint256"
        },
        {
          "internalType": "address",
          "name": "",
          "type": "address"
        }
      ],
      "name": "saleApproval",
      "outputs": [
        {
          "internalType": "bool",
          "name": "",
          "type": "bool"
        }
      ],
      "stateMutability": "view",
      "type": "function"
    },
    {
      "inputs": [],
      "name": "seller",
      "outputs": [
        {
          "internalType": "address payable",
          "name": "",
          "type": "address"
        }
      ],
      "stateMutability": "view",
      "type": "function"
    },
    {
      "stateMutability": "payable",
      "type": "receive"
    }
  ],
  "bytecode": "0x60806040523480156200001157600080fd5b5060405162001517380380620015178339818101604052810190620000379190620001f3565b836000806101000a81548173ffffffffffffffffffffffffffffffffffffffff021916908373ffffffffffffffffffffffffffffffffffffffff16021790555082600160006101000a81548173ffffffffffffffffffffffffffffffffffffffff021916908373ffffffffffffffffffffffffffffffffffffffff16021790555081600260006101000a81548173ffffffffffffffffffffffffffffffffffffffff021916908373ffffffffffffffffffffffffffffffffffffffff16021790555080600360006101000a81548173ffffffffffffffffffffffffffffffffffffffff021916908373ffffffffffffffffffffffffffffffffffffffff1602179055505050505062000265565b600080fd5b600073ffffffffffffffffffffffffffffffffffffffff82169050919050565b6000620001768262000149565b9050919050565b620001888162000169565b81146200019457600080fd5b50565b600081519050620001a8816200017d565b92915050565b6000620001bb8262000149565b9050919050565b620001cd81620001ae565b8114620001d957600080fd5b50565b600081519050620001ed81620001c2565b92915050565b6000806000806080858703121562000210576200020f62000144565b5b6000620002208782880162000197565b94505060206200023387828801620001dc565b9350506040620002468782880162000197565b9250506060620002598782880162000197565b91505092959194509250565b6112a280620002756000396000f3fe6080604052600436106101025760003560e01c80635eed5fff11610095578063bd94b00511610064578063bd94b00514610366578063c9f0ec7e1461038f578063e740f770146103ab578063ed2cee9e146103c7578063fcce4883146103f257610109565b80635eed5fff1461029857806377fbc4ae146102d55780637e31265714610312578063bcead63e1461033b57610109565b80634dd4acaf116100d15780634dd4acaf146101ca5780635bf8633a146102075780635d19e56c146102325780635ed9a6621461026f57610109565b806304cf00201461010e57806308551a531461014b57806312065fe01461017657806314a72feb146101a157610109565b3661010957005b600080fd5b34801561011a57600080fd5b5061013560048036038101906101309190610e94565b61042f565b6040516101429190610eef565b60405180910390f35b34801561015757600080fd5b5061016061045e565b60405161016d9190610f2b565b60405180910390f35b34801561018257600080fd5b5061018b610484565b6040516101989190610f55565b60405180910390f35b3480156101ad57600080fd5b506101c860048036038101906101c39190610f70565b61048c565b005b3480156101d657600080fd5b506101f160048036038101906101ec9190610f70565b6104f8565b6040516101fe9190610fac565b60405180910390f35b34801561021357600080fd5b5061021c61052b565b6040516102299190610fac565b60405180910390f35b34801561023e57600080fd5b5061025960048036038101906102549190610f70565b61054f565b6040516102669190610f55565b60405180910390f35b34801561027b57600080fd5b5061029660048036038101906102919190610ff3565b610567565b005b3480156102a457600080fd5b506102bf60048036038101906102ba9190610f70565b610626565b6040516102cc9190610eef565b60405180910390f35b3480156102e157600080fd5b506102fc60048036038101906102f79190610f70565b610646565b6040516103099190610f55565b60405180910390f35b34801561031e57600080fd5b5061033960048036038101906103349190610f70565b61065e565b005b34801561034757600080fd5b506103506109de565b60405161035d9190610fac565b60405180910390f35b34801561037257600080fd5b5061038d60048036038101906103889190610f70565b610a04565b005b6103a960048036038101906103a49190611033565b610b1c565b005b6103c560048036038101906103c09190610f70565b610cef565b005b3480156103d357600080fd5b506103dc610db5565b6040516103e99190610fac565b60405180910390f35b3480156103fe57600080fd5b5061041960048036038101906104149190610f70565b610ddb565b6040516104269190610eef565b60405180910390f35b60096020528160005260406000206020528060005260406000206000915091509054906101000a900460ff1681565b600160009054906101000a900473ffffffffffffffffffffffffffffffffffffffff1681565b600047905090565b60016009600083815260200190815260200160002060003373ffffffffffffffffffffffffffffffffffffffff1673ffffffffffffffffffffffffffffffffffffffff16815260200190815260200160002060006101000a81548160ff02191690831515021790555050565b60076020528060005260406000206000915054906101000a900473ffffffffffffffffffffffffffffffffffffffff1681565b60008054906101000a900473ffffffffffffffffffffffffffffffffffffffff1681565b60066020528060005260406000206000915090505481565b600360009054906101000a900473ffffffffffffffffffffffffffffffffffffffff1673ffffffffffffffffffffffffffffffffffffffff163373ffffffffffffffffffffffffffffffffffffffff16146105f7576040517f08c379a00000000000000000000000000000000000000000000000000000000081526004016105ee906110f7565b60405180910390fd5b806008600084815260200190815260200160002060006101000a81548160ff0219169083151502179055505050565b60086020528060005260406000206000915054906101000a900460ff1681565b60056020528060005260406000206000915090505481565b6008600082815260200190815260200160002060009054906101000a900460ff1661068857600080fd5b6009600082815260200190815260200160002060006007600084815260200190815260200160002060009054906101000a900473ffffffffffffffffffffffffffffffffffffffff1673ffffffffffffffffffffffffffffffffffffffff1673ffffffffffffffffffffffffffffffffffffffff16815260200190815260200160002060009054906101000a900460ff1661072257600080fd5b600960008281526020019081526020016000206000600160009054906101000a900473ffffffffffffffffffffffffffffffffffffffff1673ffffffffffffffffffffffffffffffffffffffff1673ffffffffffffffffffffffffffffffffffffffff16815260200190815260200160002060009054906101000a900460ff166107ab57600080fd5b600960008281526020019081526020016000206000600260009054906101000a900473ffffffffffffffffffffffffffffffffffffffff1673ffffffffffffffffffffffffffffffffffffffff1673ffffffffffffffffffffffffffffffffffffffff16815260200190815260200160002060009054906101000a900460ff1661083457600080fd5b600560008281526020019081526020016000205447101561085457600080fd5b60006004600083815260200190815260200160002060006101000a81548160ff0219169083151502179055506000600160009054906101000a900473ffffffffffffffffffffffffffffffffffffffff1673ffffffffffffffffffffffffffffffffffffffff16476040516108c890611148565b60006040518083038185875af1925050503d8060008114610905576040519150601f19603f3d011682016040523d82523d6000602084013e61090a565b606091505b505090508061091857600080fd5b60008054906101000a900473ffffffffffffffffffffffffffffffffffffffff1673ffffffffffffffffffffffffffffffffffffffff166323b872dd306007600086815260200190815260200160002060009054906101000a900473ffffffffffffffffffffffffffffffffffffffff16856040518463ffffffff1660e01b81526004016109a89392919061115d565b600060405180830381600087803b1580156109c257600080fd5b505af11580156109d6573d6000803e3d6000fd5b505050505050565b600260009054906101000a900473ffffffffffffffffffffffffffffffffffffffff1681565b600015156008600083815260200190815260200160002060009054906101000a900460ff16151503610aaf576007600082815260200190815260200160002060009054906101000a900473ffffffffffffffffffffffffffffffffffffffff1673ffffffffffffffffffffffffffffffffffffffff166108fc479081150290604051600060405180830381858888f19350505050158015610aa9573d6000803e3d6000fd5b50610b19565b600160009054906101000a900473ffffffffffffffffffffffffffffffffffffffff1673ffffffffffffffffffffffffffffffffffffffff166108fc479081150290604051600060405180830381858888f19350505050158015610b17573d6000803e3d6000fd5b505b50565b600160009054906101000a900473ffffffffffffffffffffffffffffffffffffffff1673ffffffffffffffffffffffffffffffffffffffff163373ffffffffffffffffffffffffffffffffffffffff1614610bac576040517f08c379a0000000000000000000000000000000000000000000000000000000008152600401610ba3906111e0565b60405180910390fd5b60008054906101000a900473ffffffffffffffffffffffffffffffffffffffff1673ffffffffffffffffffffffffffffffffffffffff166323b872dd3330876040518463ffffffff1660e01b8152600401610c099392919061115d565b600060405180830381600087803b158015610c2357600080fd5b505af1158015610c37573d6000803e3d6000fd5b5050505060016004600086815260200190815260200160002060006101000a81548160ff021916908315150217905550816005600086815260200190815260200160002081905550806006600086815260200190815260200160002081905550826007600086815260200190815260200160002060006101000a81548173ffffffffffffffffffffffffffffffffffffffff021916908373ffffffffffffffffffffffffffffffffffffffff16021790555050505050565b806007600082815260200190815260200160002060009054906101000a900473ffffffffffffffffffffffffffffffffffffffff1673ffffffffffffffffffffffffffffffffffffffff163373ffffffffffffffffffffffffffffffffffffffff1614610d91576040517f08c379a0000000000000000000000000000000000000000000000000000000008152600401610d889061124c565b60405180910390fd5b6006600083815260200190815260200160002054341015610db157600080fd5b5050565b600360009054906101000a900473ffffffffffffffffffffffffffffffffffffffff1681565b60046020528060005260406000206000915054906101000a900460ff1681565b600080fd5b6000819050919050565b610e1381610e00565b8114610e1e57600080fd5b50565b600081359050610e3081610e0a565b92915050565b600073ffffffffffffffffffffffffffffffffffffffff82169050919050565b6000610e6182610e36565b9050919050565b610e7181610e56565b8114610e7c57600080fd5b50565b600081359050610e8e81610e68565b92915050565b60008060408385031215610eab57610eaa610dfb565b5b6000610eb985828601610e21565b9250506020610eca85828601610e7f565b9150509250929050565b60008115159050919050565b610ee981610ed4565b82525050565b6000602082019050610f046000830184610ee0565b92915050565b6000610f1582610e36565b9050919050565b610f2581610f0a565b82525050565b6000602082019050610f406000830184610f1c565b92915050565b610f4f81610e00565b82525050565b6000602082019050610f6a6000830184610f46565b92915050565b600060208284031215610f8657610f85610dfb565b5b6000610f9484828501610e21565b91505092915050565b610fa681610e56565b82525050565b6000602082019050610fc16000830184610f9d565b92915050565b610fd081610ed4565b8114610fdb57600080fd5b50565b600081359050610fed81610fc7565b92915050565b6000806040838503121561100a57611009610dfb565b5b600061101885828601610e21565b925050602061102985828601610fde565b9150509250929050565b6000806000806080858703121561104d5761104c610dfb565b5b600061105b87828801610e21565b945050602061106c87828801610e7f565b935050604061107d87828801610e21565b925050606061108e87828801610e21565b91505092959194509250565b600082825260208201905092915050565b7f596f7520617265206e6f7420496e73706563746f720000000000000000000000600082015250565b60006110e160158361109a565b91506110ec826110ab565b602082019050919050565b60006020820190508181036000830152611110816110d4565b9050919050565b600081905092915050565b50565b6000611132600083611117565b915061113d82611122565b600082019050919050565b600061115382611125565b9150819050919050565b60006060820190506111726000830186610f9d565b61117f6020830185610f9d565b61118c6040830184610f46565b949350505050565b7f4f6e6c792053656c6c65722043616e2043616c6c000000000000000000000000600082015250565b60006111ca60148361109a565b91506111d582611194565b602082019050919050565b600060208201905081810360008301526111f9816111bd565b9050919050565b7f4f6e6c792062757965722063616e2063616c6c00000000000000000000000000600082015250565b600061123660138361109a565b915061124182611200565b602082019050919050565b6000602082019050818103600083015261126581611229565b905091905056fea26469706673582212208c335ccd817476082c4f5fc2dd8a7879501afc37f3c6644a8e0f5a266e22ae1264736f6c63430008140033",
  "linkReferences": {},
  "deployedLinkReferences": {}
}