{
  "_format": "hh-sol-artifact-1",
  "contractName": "RealEstate",
  "sourceName": "contracts/RealEstate.sol",
  "abi": [
    {
      "inputs": [],
      "stateMutability": "nonpayable",
      "type": "constructor"
    },
    {
      "inputs": [
        {
          "internalType": "address",
          "name": "sender",
          "type": "address"
        },
        {
          "internalType": "uint256",
          "name": "tokenId",
          "type": "uint256"
        },
        {
          "internalType": "address",
          "name": "owner",
          "type": "address"
        }
      ],
      "name": "ERC721IncorrectOwner",
      "type": "error"
    },
    {
      "inputs": [
        {
          "internalType": "address",
          "name": "operator",
          "type": "address"
        },
        {
          "internalType": "uint256",
          "name": "tokenId",
          "type": "uint256"
        }
      ],
      "name": "ERC721InsufficientApproval",
      "type": "error"
    },
    {
      "inputs": [
        {
          "internalType": "address",
          "name": "approver",
          "type": "address"
        }
      ],
      "name": "ERC721InvalidApprover",
      "type": "error"
    },
    {
      "inputs": [
        {
          "internalType": "address",
          "name": "operator",
          "type": "address"
        }
      ],
      "name": "ERC721InvalidOperator",
      "type": "error"
    },
    {
      "inputs": [
        {
          "internalType": "address",
          "name": "owner",
          "type": "address"
        }
      ],
      "name": "ERC721InvalidOwner",
      "type": "error"
    },
    {
      "inputs": [
        {
          "internalType": "address",
          "name": "receiver",
          "type": "address"
        }
      ],
      "name": "ERC721InvalidReceiver",
      "type": "error"
    },
    {
      "inputs": [
        {
          "internalType": "address",
          "name": "sender",
          "type": "address"
        }
      ],
      "name": "ERC721InvalidSender",
      "type": "error"
    },
    {
      "inputs": [
        {
          "internalType": "uint256",
          "name": "tokenId",
          "type": "uint256"
        }
      ],
      "name": "ERC721NonexistentToken",
      "type": "error"
    },
    {
      "anonymous": false,
      "inputs": [
        {
          "indexed": true,
          "internalType": "address",
          "name": "owner",
          "type": "address"
        },
        {
          "indexed": true,
          "internalType": "address",
          "name": "approved",
          "type": "address"
        },
        {
          "indexed": true,
          "internalType": "uint256",
          "name": "tokenId",
          "type": "uint256"
        }
      ],
      "name": "Approval",
      "type": "event"
    },
    {
      "anonymous": false,
      "inputs": [
        {
          "indexed": true,
          "internalType": "address",
          "name": "owner",
          "type": "address"
        },
        {
          "indexed": true,
          "internalType": "address",
          "name": "operator",
          "type": "address"
        },
        {
          "indexed": false,
          "internalType": "bool",
          "name": "approved",
          "type": "bool"
        }
      ],
      "name": "ApprovalForAll",
      "type": "event"
    },
    {
      "anonymous": false,
      "inputs": [
        {
          "indexed": false,
          "internalType": "uint256",
          "name": "_fromTokenId",
          "type": "uint256"
        },
        {
          "indexed": false,
          "internalType": "uint256",
          "name": "_toTokenId",
          "type": "uint256"
        }
      ],
      "name": "BatchMetadataUpdate",
      "type": "event"
    },
    {
      "anonymous": false,
      "inputs": [
        {
          "indexed": false,
          "internalType": "uint256",
          "name": "_tokenId",
          "type": "uint256"
        }
      ],
      "name": "MetadataUpdate",
      "type": "event"
    },
    {
      "anonymous": false,
      "inputs": [
        {
          "indexed": true,
          "internalType": "address",
          "name": "from",
          "type": "address"
        },
        {
          "indexed": true,
          "internalType": "address",
          "name": "to",
          "type": "address"
        },
        {
          "indexed": true,
          "internalType": "uint256",
          "name": "tokenId",
          "type": "uint256"
        }
      ],
      "name": "Transfer",
      "type": "event"
    },
    {
      "inputs": [
        {
          "internalType": "address",
          "name": "to",
          "type": "address"
        },
        {
          "internalType": "uint256",
          "name": "tokenId",
          "type": "uint256"
        }
      ],
      "name": "approve",
      "outputs": [],
      "stateMutability": "nonpayable",
      "type": "function"
    },
    {
      "inputs": [
        {
          "internalType": "address",
          "name": "owner",
          "type": "address"
        }
      ],
      "name": "balanceOf",
      "outputs": [
        {
          "internalType": "uint256",
          "name": "",
          "type": "uint256"
        }
      ],
      "stateMutability": "view",
      "type": "function"
    },
    {
      "inputs": [
        {
          "internalType": "uint256",
          "name": "tokenId",
          "type": "uint256"
        }
      ],
      "name": "getApproved",
      "outputs": [
        {
          "internalType": "address",
          "name": "",
          "type": "address"
        }
      ],
      "stateMutability": "view",
      "type": "function"
    },
    {
      "inputs": [
        {
          "internalType": "address",
          "name": "owner",
          "type": "address"
        },
        {
          "internalType": "address",
          "name": "operator",
          "type": "address"
        }
      ],
      "name": "isApprovedForAll",
      "outputs": [
        {
          "internalType": "bool",
          "name": "",
          "type": "bool"
        }
      ],
      "stateMutability": "view",
      "type": "function"
    },
    {
      "inputs": [
        {
          "internalType": "string",
          "name": "tokenURI",
          "type": "string"
        }
      ],
      "name": "mint",
      "outputs": [
        {
          "internalType": "uint256",
          "name": "",
          "type": "uint256"
        }
      ],
      "stateMutability": "nonpayable",
      "type": "function"
    },
    {
      "inputs": [],
      "name": "name",
      "outputs": [
        {
          "internalType": "string",
          "name": "",
          "type": "string"
        }
      ],
      "stateMutability": "view",
      "type": "function"
    },
    {
      "inputs": [
        {
          "internalType": "uint256",
          "name": "tokenId",
          "type": "uint256"
        }
      ],
      "name": "ownerOf",
      "outputs": [
        {
          "internalType": "address",
          "name": "",
          "type": "address"
        }
      ],
      "stateMutability": "view",
      "type": "function"
    },
    {
      "inputs": [
        {
          "internalType": "address",
          "name": "from",
          "type": "address"
        },
        {
          "internalType": "address",
          "name": "to",
          "type": "address"
        },
        {
          "internalType": "uint256",
          "name": "tokenId",
          "type": "uint256"
        }
      ],
      "name": "safeTransferFrom",
      "outputs": [],
      "stateMutability": "nonpayable",
      "type": "function"
    },
    {
      "inputs": [
        {
          "internalType": "address",
          "name": "from",
          "type": "address"
        },
        {
          "internalType": "address",
          "name": "to",
          "type": "address"
        },
        {
          "internalType": "uint256",
          "name": "tokenId",
          "type": "uint256"
        },
        {
          "internalType": "bytes",
          "name": "data",
          "type": "bytes"
        }
      ],
      "name": "safeTransferFrom",
      "outputs": [],
      "stateMutability": "nonpayable",
      "type": "function"
    },
    {
      "inputs": [
        {
          "internalType": "address",
          "name": "operator",
          "type": "address"
        },
        {
          "internalType": "bool",
          "name": "approved",
          "type": "bool"
        }
      ],
      "name": "setApprovalForAll",
      "outputs": [],
      "stateMutability": "nonpayable",
      "type": "function"
    },
    {
      "inputs": [
        {
          "internalType": "bytes4",
          "name": "interfaceId",
          "type": "bytes4"
        }
      ],
      "name": "supportsInterface",
      "outputs": [
        {
          "internalType": "bool",
          "name": "",
          "type": "bool"
        }
      ],
      "stateMutability": "view",
      "type": "function"
    },
    {
      "inputs": [],
      "name": "symbol",
      "outputs": [
        {
          "internalType": "string",
          "name": "",
          "type": "string"
        }
      ],
      "stateMutability": "view",
      "type": "function"
    },
    {
      "inputs": [
        {
          "internalType": "uint256",
          "name": "tokenId",
          "type": "uint256"
        }
      ],
      "name": "tokenURI",
      "outputs": [
        {
          "internalType": "string",
          "name": "",
          "type": "string"
        }
      ],
      "stateMutability": "view",
      "type": "function"
    },
    {
      "inputs": [],
      "name": "totalSupply",
      "outputs": [
        {
          "internalType": "uint256",
          "name": "",
          "type": "uint256"
        }
      ],
      "stateMutability": "view",
      "type": "function"
    },
    {
      "inputs": [
        {
          "internalType": "address",
          "name": "from",
          "type": "address"
        },
        {
          "internalType": "address",
          "name": "to",
          "type": "address"
        },
        {
          "internalType": "uint256",
          "name": "tokenId",
          "type": "uint256"
        }
      ],
      "name": "transferFrom",
      "outputs": [],
      "stateMutability": "nonpayable",
      "type": "function"
    }
  ],
  "bytecode": "0x60806040523480156200001157600080fd5b506040518060400160405280600a81526020017f5265616c457374617465000000000000000000000000000000000000000000008152506040518060400160405280600281526020017f524500000000000000000000000000000000000000000000000000000000000081525081600090816200008f919062000324565b508060019081620000a1919062000324565b5050506200040b565b600081519050919050565b7f4e487b7100000000000000000000000000000000000000000000000000000000600052604160045260246000fd5b7f4e487b7100000000000000000000000000000000000000000000000000000000600052602260045260246000fd5b600060028204905060018216806200012c57607f821691505b602082108103620001425762000141620000e4565b5b50919050565b60008190508160005260206000209050919050565b60006020601f8301049050919050565b600082821b905092915050565b600060088302620001ac7fffffffffffffffffffffffffffffffffffffffffffffffffffffffffffffffff826200016d565b620001b886836200016d565b95508019841693508086168417925050509392505050565b6000819050919050565b6000819050919050565b600062000205620001ff620001f984620001d0565b620001da565b620001d0565b9050919050565b6000819050919050565b6200022183620001e4565b6200023962000230826200020c565b8484546200017a565b825550505050565b600090565b6200025062000241565b6200025d81848462000216565b505050565b5b8181101562000285576200027960008262000246565b60018101905062000263565b5050565b601f821115620002d4576200029e8162000148565b620002a9846200015d565b81016020851015620002b9578190505b620002d1620002c8856200015d565b83018262000262565b50505b505050565b600082821c905092915050565b6000620002f960001984600802620002d9565b1980831691505092915050565b6000620003148383620002e6565b9150826002028217905092915050565b6200032f82620000aa565b67ffffffffffffffff8111156200034b576200034a620000b5565b5b62000357825462000113565b6200036482828562000289565b600060209050601f8311600181146200039c576000841562000387578287015190505b62000393858262000306565b86555062000403565b601f198416620003ac8662000148565b60005b82811015620003d657848901518255600182019150602085019450602081019050620003af565b86831015620003f65784890151620003f2601f891682620002e6565b8355505b6001600288020188555050505b505050505050565b6123d9806200041b6000396000f3fe608060405234801561001057600080fd5b50600436106100f55760003560e01c80636352211e11610097578063b88d4fde11610066578063b88d4fde14610284578063c87b56dd146102a0578063d85d3d27146102d0578063e985e9c514610300576100f5565b80636352211e146101ea57806370a082311461021a57806395d89b411461024a578063a22cb46514610268576100f5565b8063095ea7b3116100d3578063095ea7b31461017857806318160ddd1461019457806323b872dd146101b257806342842e0e146101ce576100f5565b806301ffc9a7146100fa57806306fdde031461012a578063081812fc14610148575b600080fd5b610114600480360381019061010f9190611844565b610330565b604051610121919061188c565b60405180910390f35b610132610391565b60405161013f9190611937565b60405180910390f35b610162600480360381019061015d919061198f565b610423565b60405161016f91906119fd565b60405180910390f35b610192600480360381019061018d9190611a44565b61043f565b005b61019c610455565b6040516101a99190611a93565b60405180910390f35b6101cc60048036038101906101c79190611aae565b61045f565b005b6101e860048036038101906101e39190611aae565b610561565b005b61020460048036038101906101ff919061198f565b610581565b60405161021191906119fd565b60405180910390f35b610234600480360381019061022f9190611b01565b610593565b6040516102419190611a93565b60405180910390f35b61025261064d565b60405161025f9190611937565b60405180910390f35b610282600480360381019061027d9190611b5a565b6106df565b005b61029e60048036038101906102999190611ccf565b6106f5565b005b6102ba60048036038101906102b5919061198f565b610712565b6040516102c79190611937565b60405180910390f35b6102ea60048036038101906102e59190611df3565b610825565b6040516102f79190611a93565b60405180910390f35b61031a60048036038101906103159190611e3c565b61085c565b604051610327919061188c565b60405180910390f35b6000634906490660e01b7bffffffffffffffffffffffffffffffffffffffffffffffffffffffff1916827bffffffffffffffffffffffffffffffffffffffffffffffffffffffff1916148061038a5750610389826108f0565b5b9050919050565b6060600080546103a090611eab565b80601f01602080910402602001604051908101604052809291908181526020018280546103cc90611eab565b80156104195780601f106103ee57610100808354040283529160200191610419565b820191906000526020600020905b8154815290600101906020018083116103fc57829003601f168201915b5050505050905090565b600061042e826109d2565b5061043882610a5a565b9050919050565b610451828261044c610a97565b610a9f565b5050565b6000600754905090565b600073ffffffffffffffffffffffffffffffffffffffff168273ffffffffffffffffffffffffffffffffffffffff16036104d15760006040517f64a0ae920000000000000000000000000000000000000000000000000000000081526004016104c891906119fd565b60405180910390fd5b60006104e583836104e0610a97565b610ab1565b90508373ffffffffffffffffffffffffffffffffffffffff168173ffffffffffffffffffffffffffffffffffffffff161461055b578382826040517f64283d7b00000000000000000000000000000000000000000000000000000000815260040161055293929190611edc565b60405180910390fd5b50505050565b61057c838383604051806020016040528060008152506106f5565b505050565b600061058c826109d2565b9050919050565b60008073ffffffffffffffffffffffffffffffffffffffff168273ffffffffffffffffffffffffffffffffffffffff16036106065760006040517f89c62b640000000000000000000000000000000000000000000000000000000081526004016105fd91906119fd565b60405180910390fd5b600360008373ffffffffffffffffffffffffffffffffffffffff1673ffffffffffffffffffffffffffffffffffffffff168152602001908152602001600020549050919050565b60606001805461065c90611eab565b80601f016020809104026020016040519081016040528092919081815260200182805461068890611eab565b80156106d55780601f106106aa576101008083540402835291602001916106d5565b820191906000526020600020905b8154815290600101906020018083116106b857829003601f168201915b5050505050905090565b6106f16106ea610a97565b8383610ccb565b5050565b61070084848461045f565b61070c84848484610e3a565b50505050565b606061071d826109d2565b50600060066000848152602001908152602001600020805461073e90611eab565b80601f016020809104026020016040519081016040528092919081815260200182805461076a90611eab565b80156107b75780601f1061078c576101008083540402835291602001916107b7565b820191906000526020600020905b81548152906001019060200180831161079a57829003601f168201915b5050505050905060006107c8610ff1565b905060008151036107dd578192505050610820565b6000825111156108125780826040516020016107fa929190611f4f565b60405160208183030381529060405292505050610820565b61081b84611008565b925050505b919050565b60008060076000815461083790611fa2565b91905081905590506108493382611071565b610853818461116a565b80915050919050565b6000600560008473ffffffffffffffffffffffffffffffffffffffff1673ffffffffffffffffffffffffffffffffffffffff16815260200190815260200160002060008373ffffffffffffffffffffffffffffffffffffffff1673ffffffffffffffffffffffffffffffffffffffff16815260200190815260200160002060009054906101000a900460ff16905092915050565b60007f80ac58cd000000000000000000000000000000000000000000000000000000007bffffffffffffffffffffffffffffffffffffffffffffffffffffffff1916827bffffffffffffffffffffffffffffffffffffffffffffffffffffffff191614806109bb57507f5b5e139f000000000000000000000000000000000000000000000000000000007bffffffffffffffffffffffffffffffffffffffffffffffffffffffff1916827bffffffffffffffffffffffffffffffffffffffffffffffffffffffff1916145b806109cb57506109ca826111c6565b5b9050919050565b6000806109de83611230565b9050600073ffffffffffffffffffffffffffffffffffffffff168173ffffffffffffffffffffffffffffffffffffffff1603610a5157826040517f7e273289000000000000000000000000000000000000000000000000000000008152600401610a489190611a93565b60405180910390fd5b80915050919050565b60006004600083815260200190815260200160002060009054906101000a900473ffffffffffffffffffffffffffffffffffffffff169050919050565b600033905090565b610aac838383600161126d565b505050565b600080610abd84611230565b9050600073ffffffffffffffffffffffffffffffffffffffff168373ffffffffffffffffffffffffffffffffffffffff1614610aff57610afe818486611432565b5b600073ffffffffffffffffffffffffffffffffffffffff168173ffffffffffffffffffffffffffffffffffffffff1614610b9057610b4160008560008061126d565b6001600360008373ffffffffffffffffffffffffffffffffffffffff1673ffffffffffffffffffffffffffffffffffffffff168152602001908152602001600020600082825403925050819055505b600073ffffffffffffffffffffffffffffffffffffffff168573ffffffffffffffffffffffffffffffffffffffff1614610c13576001600360008773ffffffffffffffffffffffffffffffffffffffff1673ffffffffffffffffffffffffffffffffffffffff168152602001908152602001600020600082825401925050819055505b846002600086815260200190815260200160002060006101000a81548173ffffffffffffffffffffffffffffffffffffffff021916908373ffffffffffffffffffffffffffffffffffffffff160217905550838573ffffffffffffffffffffffffffffffffffffffff168273ffffffffffffffffffffffffffffffffffffffff167fddf252ad1be2c89b69c2b068fc378daa952ba7f163c4a11628f55a4df523b3ef60405160405180910390a4809150509392505050565b600073ffffffffffffffffffffffffffffffffffffffff168273ffffffffffffffffffffffffffffffffffffffff1603610d3c57816040517f5b08ba18000000000000000000000000000000000000000000000000000000008152600401610d3391906119fd565b60405180910390fd5b80600560008573ffffffffffffffffffffffffffffffffffffffff1673ffffffffffffffffffffffffffffffffffffffff16815260200190815260200160002060008473ffffffffffffffffffffffffffffffffffffffff1673ffffffffffffffffffffffffffffffffffffffff16815260200190815260200160002060006101000a81548160ff0219169083151502179055508173ffffffffffffffffffffffffffffffffffffffff168373ffffffffffffffffffffffffffffffffffffffff167f17307eab39ab6107e8899845ad3d59bd9653f200f220920489ca2b5937696c3183604051610e2d919061188c565b60405180910390a3505050565b60008373ffffffffffffffffffffffffffffffffffffffff163b1115610feb578273ffffffffffffffffffffffffffffffffffffffff1663150b7a02610e7e610a97565b8685856040518563ffffffff1660e01b8152600401610ea0949392919061203f565b6020604051808303816000875af1925050508015610edc57506040513d601f19601f82011682018060405250810190610ed991906120a0565b60015b610f60573d8060008114610f0c576040519150601f19603f3d011682016040523d82523d6000602084013e610f11565b606091505b506000815103610f5857836040517f64a0ae92000000000000000000000000000000000000000000000000000000008152600401610f4f91906119fd565b60405180910390fd5b805181602001fd5b63150b7a0260e01b7bffffffffffffffffffffffffffffffffffffffffffffffffffffffff1916817bffffffffffffffffffffffffffffffffffffffffffffffffffffffff191614610fe957836040517f64a0ae92000000000000000000000000000000000000000000000000000000008152600401610fe091906119fd565b60405180910390fd5b505b50505050565b606060405180602001604052806000815250905090565b6060611013826109d2565b50600061101e610ff1565b9050600081511161103e5760405180602001604052806000815250611069565b80611048846114f6565b604051602001611059929190611f4f565b6040516020818303038152906040525b915050919050565b600073ffffffffffffffffffffffffffffffffffffffff168273ffffffffffffffffffffffffffffffffffffffff16036110e35760006040517f64a0ae920000000000000000000000000000000000000000000000000000000081526004016110da91906119fd565b60405180910390fd5b60006110f183836000610ab1565b9050600073ffffffffffffffffffffffffffffffffffffffff168173ffffffffffffffffffffffffffffffffffffffff16146111655760006040517f73c6ac6e00000000000000000000000000000000000000000000000000000000815260040161115c91906119fd565b60405180910390fd5b505050565b8060066000848152602001908152602001600020908161118a9190612279565b507ff8e1a15aba9398e019f0b49df1a4fde98ee17ae345cb5f6b5e2c27f5033e8ce7826040516111ba9190611a93565b60405180910390a15050565b60007f01ffc9a7000000000000000000000000000000000000000000000000000000007bffffffffffffffffffffffffffffffffffffffffffffffffffffffff1916827bffffffffffffffffffffffffffffffffffffffffffffffffffffffff1916149050919050565b60006002600083815260200190815260200160002060009054906101000a900473ffffffffffffffffffffffffffffffffffffffff169050919050565b80806112a65750600073ffffffffffffffffffffffffffffffffffffffff168273ffffffffffffffffffffffffffffffffffffffff1614155b156113da5760006112b6846109d2565b9050600073ffffffffffffffffffffffffffffffffffffffff168373ffffffffffffffffffffffffffffffffffffffff161415801561132157508273ffffffffffffffffffffffffffffffffffffffff168173ffffffffffffffffffffffffffffffffffffffff1614155b80156113345750611332818461085c565b155b1561137657826040517fa9fbf51f00000000000000000000000000000000000000000000000000000000815260040161136d91906119fd565b60405180910390fd5b81156113d857838573ffffffffffffffffffffffffffffffffffffffff168273ffffffffffffffffffffffffffffffffffffffff167f8c5be1e5ebec7d5bd14f71427d1e84f3dd0314c0f7b2291e5b200ac8c7c3b92560405160405180910390a45b505b836004600085815260200190815260200160002060006101000a81548173ffffffffffffffffffffffffffffffffffffffff021916908373ffffffffffffffffffffffffffffffffffffffff16021790555050505050565b61143d8383836115c4565b6114f157600073ffffffffffffffffffffffffffffffffffffffff168373ffffffffffffffffffffffffffffffffffffffff16036114b257806040517f7e2732890000000000000000000000000000000000000000000000000000000081526004016114a99190611a93565b60405180910390fd5b81816040517f177e802f0000000000000000000000000000000000000000000000000000000081526004016114e892919061234b565b60405180910390fd5b505050565b60606000600161150584611685565b01905060008167ffffffffffffffff81111561152457611523611ba4565b5b6040519080825280601f01601f1916602001820160405280156115565781602001600182028036833780820191505090505b509050600082602001820190505b6001156115b9578080600190039150507f3031323334353637383961626364656600000000000000000000000000000000600a86061a8153600a85816115ad576115ac612374565b5b04945060008503611564575b819350505050919050565b60008073ffffffffffffffffffffffffffffffffffffffff168373ffffffffffffffffffffffffffffffffffffffff161415801561167c57508273ffffffffffffffffffffffffffffffffffffffff168473ffffffffffffffffffffffffffffffffffffffff16148061163d575061163c848461085c565b5b8061167b57508273ffffffffffffffffffffffffffffffffffffffff1661166383610a5a565b73ffffffffffffffffffffffffffffffffffffffff16145b5b90509392505050565b600080600090507a184f03e93ff9f4daa797ed6e38ed64bf6a1f01000000000000000083106116e3577a184f03e93ff9f4daa797ed6e38ed64bf6a1f01000000000000000083816116d9576116d8612374565b5b0492506040810190505b6d04ee2d6d415b85acef81000000008310611720576d04ee2d6d415b85acef8100000000838161171657611715612374565b5b0492506020810190505b662386f26fc10000831061174f57662386f26fc10000838161174557611744612374565b5b0492506010810190505b6305f5e1008310611778576305f5e100838161176e5761176d612374565b5b0492506008810190505b612710831061179d57612710838161179357611792612374565b5b0492506004810190505b606483106117c057606483816117b6576117b5612374565b5b0492506002810190505b600a83106117cf576001810190505b80915050919050565b6000604051905090565b600080fd5b600080fd5b60007fffffffff0000000000000000000000000000000000000000000000000000000082169050919050565b611821816117ec565b811461182c57600080fd5b50565b60008135905061183e81611818565b92915050565b60006020828403121561185a576118596117e2565b5b60006118688482850161182f565b91505092915050565b60008115159050919050565b61188681611871565b82525050565b60006020820190506118a1600083018461187d565b92915050565b600081519050919050565b600082825260208201905092915050565b60005b838110156118e15780820151818401526020810190506118c6565b60008484015250505050565b6000601f19601f8301169050919050565b6000611909826118a7565b61191381856118b2565b93506119238185602086016118c3565b61192c816118ed565b840191505092915050565b6000602082019050818103600083015261195181846118fe565b905092915050565b6000819050919050565b61196c81611959565b811461197757600080fd5b50565b60008135905061198981611963565b92915050565b6000602082840312156119a5576119a46117e2565b5b60006119b38482850161197a565b91505092915050565b600073ffffffffffffffffffffffffffffffffffffffff82169050919050565b60006119e7826119bc565b9050919050565b6119f7816119dc565b82525050565b6000602082019050611a1260008301846119ee565b92915050565b611a21816119dc565b8114611a2c57600080fd5b50565b600081359050611a3e81611a18565b92915050565b60008060408385031215611a5b57611a5a6117e2565b5b6000611a6985828601611a2f565b9250506020611a7a8582860161197a565b9150509250929050565b611a8d81611959565b82525050565b6000602082019050611aa86000830184611a84565b92915050565b600080600060608486031215611ac757611ac66117e2565b5b6000611ad586828701611a2f565b9350506020611ae686828701611a2f565b9250506040611af78682870161197a565b9150509250925092565b600060208284031215611b1757611b166117e2565b5b6000611b2584828501611a2f565b91505092915050565b611b3781611871565b8114611b4257600080fd5b50565b600081359050611b5481611b2e565b92915050565b60008060408385031215611b7157611b706117e2565b5b6000611b7f85828601611a2f565b9250506020611b9085828601611b45565b9150509250929050565b600080fd5b600080fd5b7f4e487b7100000000000000000000000000000000000000000000000000000000600052604160045260246000fd5b611bdc826118ed565b810181811067ffffffffffffffff82111715611bfb57611bfa611ba4565b5b80604052505050565b6000611c0e6117d8565b9050611c1a8282611bd3565b919050565b600067ffffffffffffffff821115611c3a57611c39611ba4565b5b611c43826118ed565b9050602081019050919050565b82818337600083830152505050565b6000611c72611c6d84611c1f565b611c04565b905082815260208101848484011115611c8e57611c8d611b9f565b5b611c99848285611c50565b509392505050565b600082601f830112611cb657611cb5611b9a565b5b8135611cc6848260208601611c5f565b91505092915050565b60008060008060808587031215611ce957611ce86117e2565b5b6000611cf787828801611a2f565b9450506020611d0887828801611a2f565b9350506040611d198782880161197a565b925050606085013567ffffffffffffffff811115611d3a57611d396117e7565b5b611d4687828801611ca1565b91505092959194509250565b600067ffffffffffffffff821115611d6d57611d6c611ba4565b5b611d76826118ed565b9050602081019050919050565b6000611d96611d9184611d52565b611c04565b905082815260208101848484011115611db257611db1611b9f565b5b611dbd848285611c50565b509392505050565b600082601f830112611dda57611dd9611b9a565b5b8135611dea848260208601611d83565b91505092915050565b600060208284031215611e0957611e086117e2565b5b600082013567ffffffffffffffff811115611e2757611e266117e7565b5b611e3384828501611dc5565b91505092915050565b60008060408385031215611e5357611e526117e2565b5b6000611e6185828601611a2f565b9250506020611e7285828601611a2f565b9150509250929050565b7f4e487b7100000000000000000000000000000000000000000000000000000000600052602260045260246000fd5b60006002820490506001821680611ec357607f821691505b602082108103611ed657611ed5611e7c565b5b50919050565b6000606082019050611ef160008301866119ee565b611efe6020830185611a84565b611f0b60408301846119ee565b949350505050565b600081905092915050565b6000611f29826118a7565b611f338185611f13565b9350611f438185602086016118c3565b80840191505092915050565b6000611f5b8285611f1e565b9150611f678284611f1e565b91508190509392505050565b7f4e487b7100000000000000000000000000000000000000000000000000000000600052601160045260246000fd5b6000611fad82611959565b91507fffffffffffffffffffffffffffffffffffffffffffffffffffffffffffffffff8203611fdf57611fde611f73565b5b600182019050919050565b600081519050919050565b600082825260208201905092915050565b600061201182611fea565b61201b8185611ff5565b935061202b8185602086016118c3565b612034816118ed565b840191505092915050565b600060808201905061205460008301876119ee565b61206160208301866119ee565b61206e6040830185611a84565b81810360608301526120808184612006565b905095945050505050565b60008151905061209a81611818565b92915050565b6000602082840312156120b6576120b56117e2565b5b60006120c48482850161208b565b91505092915050565b60008190508160005260206000209050919050565b60006020601f8301049050919050565b600082821b905092915050565b60006008830261212f7fffffffffffffffffffffffffffffffffffffffffffffffffffffffffffffffff826120f2565b61213986836120f2565b95508019841693508086168417925050509392505050565b6000819050919050565b600061217661217161216c84611959565b612151565b611959565b9050919050565b6000819050919050565b6121908361215b565b6121a461219c8261217d565b8484546120ff565b825550505050565b600090565b6121b96121ac565b6121c4818484612187565b505050565b5b818110156121e8576121dd6000826121b1565b6001810190506121ca565b5050565b601f82111561222d576121fe816120cd565b612207846120e2565b81016020851015612216578190505b61222a612222856120e2565b8301826121c9565b50505b505050565b600082821c905092915050565b600061225060001984600802612232565b1980831691505092915050565b6000612269838361223f565b9150826002028217905092915050565b612282826118a7565b67ffffffffffffffff81111561229b5761229a611ba4565b5b6122a58254611eab565b6122b08282856121ec565b600060209050601f8311600181146122e357600084156122d1578287015190505b6122db858261225d565b865550612343565b601f1984166122f1866120cd565b60005b82811015612319578489015182556001820191506020850194506020810190506122f4565b868310156123365784890151612332601f89168261223f565b8355505b6001600288020188555050505b505050505050565b600060408201905061236060008301856119ee565b61236d6020830184611a84565b9392505050565b7f4e487b7100000000000000000000000000000000000000000000000000000000600052601260045260246000fdfea264697066735822122071d21d64d918e740a7b15ace93c267f5f7017363d14e190993bdda76ce65265964736f6c63430008140033",
  "linkReferences": {},
  "deployedLinkReferences": {}
}